S01B0000534C53544B33333031415F63616E5F626F6172642E73333748
S11300000080002045060000710600007106000013
S11300107106000071060000710600007106000000
S113002071060000710600007106000071060000F0
S113003071060000710600007106000071060000E0
S113004071060000710600007106000071060000D0
S113005071060000710600007106000071060000C0
S1130060710600007106000071060000891000008E
S1130070710600009D5F000071060000710600001B
S11300807106000071060000710600007106000090
S11300907106000071060000710600007106000080
S11300A07106000071060000710600007106000070
S11300B0710600007106000071060000C510000002
S11300C010B5064C2378002B07D1054B002B02D02A
S11300D0044800E000BF0123237010BD8400002009
S11300E00000000048820000044B10B5002B03D030
S11300F00349044800E000BF10BDC04600000000F2
S11301008800002048820000164B002B00D1144BBD
S11301109D46402292029A1A924600218B460F462F
S11301201348144A121A06F03EF90F4B002B00D064
S113013098470E4B002B00D0984700200021040064
S11301400D000D48002802D00C4800E000BF06F066
S1130150FDF82000290001F005FA06F0E1F8C04698
S113016000000800008000200000000000000000E3
S113017084000020E00000200000000000000000D7
S113018090B589B000AF3B1D144A13CA13C313CAF8
S113019013C312681A60124B00221A60114B00221A
S11301A01A60114B0121180002F022FC0F4B0121AF
S11301B0180002F01DFC0E4B0121180002F018FC7F
S11301C03B1D0C4A1900100005F0B4FC012000F09E
S11301D013F800231800BD4609B090BD60770000F5
S11301E0A0000020A40000204041050000250A00D2
S11301F0001204000004014080B582B000AF020088
S1130200FB1D1A70FB1D1B78002B1ED0012304223A
S11302100021032004F066FF0123012201210320B1
S113022004F060FF012304220821002004F05AFF97
S1130230144B03225A67134B9B6F134A1A40114BFA
S11302400221FF310A439A6717E0002300220821A4
S1130250002004F047FF0B4B5A6F0A4B03218A43DB
S11302605A67002300220021032004F03BFF0023EF
S113027000220121032004F035FFC046BD4602B030
S113028080BDC04600040140F8F8FFFF80B582B08D
S113029000AF78607B680422134001D0FFF770FF41
S11302A000231800BD4602B080BD80B584B000AF05
S11302B0786039607B68C022D20494466344FB6052
S11302C0FB683A681A60C046BD4604B080BD80B57C
S11302D084B000AF786039607B688022D204944691
S11302E06344FB60FB683A681A60C046BD4604B0CC
S11302F080BD000080B582B000AF02003960FB1DF4
S11303001A70FB1D1B78002B1FD0FB1D1B78012BC3
S113031019D0FB1D1B78022B13D0FB1D1B78032B5C
S11303200DD0FB1D1B78042B07D0FB1D1B78052B60
S113033001D13F230AE0002308E0144B06E0144BEC
S113034004E0144B02E0144B00E0144B3A681341F0
S11303500122134005D1124A124B1100180001F07A
S113036075F9FB1D1A7813005B009B181B010C33F5
S11303700D4A981801223B689A4013001900FFF7B0
S1130380A6FFC046BD4602B080BDC046F0FF0000D7
S1130390FF010000FFFF0000F87900007FF7000074
S11303A0DD0300007C7700000080084080B582B047
S11303B000AF02003960FB1D1A70FB1D1B78002B77
S11303C01FD0FB1D1B78012B19D0FB1D1B78022BA2
S11303D013D0FB1D1B78032B0DD0FB1D1B78042BA6
S11303E007D0FB1D1B78052B01D13F230AE0002316
S11303F008E0144B06E0144B04E0144B02E0144BE9
S113040000E0144B3A6813410122134005D1124A0B
S1130410124B1100180001F019F9FB1D1A78130092
S11304205B009B181B010C330D4A981801223B6892
S11304309A4013001900FFF738FFC046BD4602B0CA
S113044080BDC046F0FF0000FF010000FFFF000078
S1130450F87900007FF700000C0400007C770000AE
S11304600080084080B582B000AF02003960FB1DF7
S11304701A70FB1D1B78002B1FD0FB1D1B78012B52
S113048019D0FB1D1B78022B13D0FB1D1B78032BEB
S11304900DD0FB1D1B78042B07D0FB1D1B78052BEF
S11304A001D13F230AE0002308E0134B06E0134B7D
S11304B004E0134B02E0134B00E0134B3A68134182
S11304C00122134005D1114A114B1100180001F00B
S11304D0BDF801223B689A4010000E49FB1D1A78B2
S11304E013005B009B181B01CB1818331860C0461F
S11304F0BD4602B080BDC046F0FF0000FF01000011
S1130500FFFF0000F87900007FF7000027040000D7
S11305107C7700000080084080B582B000AF134BA8
S11305200121180002F064FA114B0121180002F0B5
S11305305FFA00237B6010E00E4B7A68D200D05C37
S11305400C4A7B68DB00D3180433196800230422A7
S113055004F0C8FD7B6801337B607B68012BEBDD15
S113056000231800BD4602B080BDC04640410500CE
S113057000250A00E077000080B582B000AF786003
S11305807B68002B11DB7B68012B0EDC0A4B7A683D
S1130590D200D05C084A7B68DB00D31804331B68A4
S11305A01900FFF7A7FE002301E001235B421800B6
S11305B0BD4602B080BDC046E077000080B582B081
S11305C000AF78607B68002B11DB7B68012B0EDCAD
S11305D00A4B7A68D200D05C084A7B68DB00D318E7
S11305E004331B681900FFF7E1FE002301E0012337
S11305F05B421800BD4602B080BDC046E0770000F3
S113060080B582B000AF78607B68002B11DB7B681B
S1130610012B0EDC0A4B7A68D200D05C084A7B6856
S1130620DB00D31804331B681900FFF71BFF0023FA
S113063001E001235B421800BD4602B080BDC04604
S1130640E0770000064880470649074A074B9B1A93
S113065003DD043BC858D050FBDCFFF755FD000018
S11306605107000054820000000000208400002094
S1130670FEE7C04680B582B000AF00F027F8030063
S11306807B600C4A84235B00D3581B0ADB05DB0D1B
S11306903B603B6801331900786805F097FD03005F
S11306A07B60054B7A681A607B681800BD4602B00F
S11306B080BDC04600400E400800002080B500AF59
S11306C0014B1800BD4680BD006CDC0280B582B0D1
S11306D000AF164A9423D35807221340032B08D0A3
S11306E0042B02D0022B08D00BE0114B1B687B605B
S11306F00BE080231B027B6007E00E4B1B687B60D2
S113070003E00D4B1B687B60C046084A80235B00F6
S1130710D3581B0A1F22134001331900786805F0CF
S113072055FD03001800BD4602B080BD00400E40D8
S113073004000020000000200C00002080B500AF61
S1130740024B1B681800BD4680BDC0460000002057
S113075080B500AF024B034A9A60C046BD4680BDD7
S113076000ED00E00000000080B500AF80231B0214
S11307701800BD4680BD80B500AFFA239B00180069
S1130780BD4680BD80B500AF024B1B681800BD4656
S113079080BDC0460400002080B582B000AF0200D6
S11307A0FB1D1A70FB1D1B78002B04D0064AC023C6
S11307B00121D15003E0044AC0230021D150C04696
S11307C0BD4602B080BDC0460040054080B582B041
S11307D000AF7860C046054AC423D3587A681340F2
S11307E0F9D1C046BD4602B080BDC04600400540B8
S11307F080B582B000AF7860054B9A6A7B68D943B4
S1130800034B0A409A62C046BD4602B080BDC04652
S11308100040054080B500AF324B00221900002093
S113082004F0D4FE2F4B00221900012004F0CEFE68
S11308302C4B00221900022004F0C8FE294B002290
S11308401900032004F0C2FE264B002219000420E4
S113085004F0BCFE234B00221900052004F0B6FE70
S1130860204B00221900062004F0B0FE1D4B00228C
S11308701900072004F0AAFE00220321002004F03E
S113088061FF00220321012004F05CFF0022032108
S1130890022004F057FF00220321032004F052FF3A
S11308A000220321042004F04DFF0022032105202F
S11308B004F048FF00220321062004F043FF002235
S11308C00321072004F03EFF074B1B78002B05D0C3
S11308D0064B5A68054B06490A405A60C046BD4655
S11308E080BDC046FFFF0FCF100000200040054030
S11308F0FFFF8FFF80B500AF1A4B002219000420C0
S113090004F064FE174B00221900052004F05EFE7B
S1130910144B00221900062004F058FE114B00224B
S11309201900072004F052FE00220321042004F0E1
S113093009FF00220321052004F004FF0022032103
S1130940062004F0FFFE00220321072004F0FAFE33
S1130950054B1B78002B01D000F048F9C046BD467A
S113096080BDC046FFFF0FCF1000002080B582B0CD
S113097000AF0200FB1D1A701B4B0121180002F08E
S113098037F81A4B0321180002F004FE184B082113
S1130990180002F01DF8082003F00EF8154B012191
S11309A0180002F025F801235B421800FFF720FF2E
S11309B0114B180004F0B2FC0023002B02D10F4BA2
S11309C000221A700E4B0F4A9A600D4AF423032139
S11309D0D150FFF71FFF01235B421800FFF7F6FE1B
S11309E0C046BD4602B080BD00050A0002001E00DC
S11309F080002A0000262C00247B00001000002028
S1130A0000400540FFFF0FCF80B58AB000AF78608B
S1130A107B68180005F0E8FD0300BB6100233B621E
S1130A2001235B421800FFF7D1FE0120FFF7B4FE5B
S1130A30FFF760FF00233B6248E03A6ABB699A42D1
S1130A4003DA7B681B787B6201E020237B627B6A8C
S1130A50203B7B621623FB18244A796A49008A5A90
S1130A601A800023FB6128E021493A6A1300DB0065
S1130A709B1A9B00CA18FB69D3180E331B783B6181
S1130A801B493A6A1300DB009B1A9B00CA18FB69D6
S1130A90D3181B78FB601623FB181A88FB691A41CC
S1130AA013000122134005D0FB68396901221800A4
S1130AB004F084FCFB690133FB61FB690D2BD3DD7E
S1130AC07B6801337B603B6A01333B623B6A072BE3
S1130AD0B3DD0020FFF760FE064B1B78002B01D02E
S1130AE000F084F8C046BD460AB080BD6C7A0000B0
S1130AF0F07700001000002090B595B000AF78604A
S1130B0039600C210C007A18374B1000190040236F
S1130B101A0005F03FFC0023FB647B680F221A4097
S1130B2021007B189200D358FA6CD318FB647B68BD
S1130B301B090F221A407B189200D358FA6CD31861
S1130B40FB647B681B0A0F221A407B189200D3585F
S1130B50FA6CD318FB647B681B0B0F221A407B18BA
S1130B609200D358FA6CD318FB647B681B0C0F22D9
S1130B701A407B189200D358FA6CD318FB647B6834
S1130B801B0D0F221A407B189200D358FA6CD3180D
S1130B90FB647B681B0E0F221A407B189200D3580B
S1130BA0FA6CD318FB647B681A0F7B189200D35835
S1130BB0FA6CD318FB643B680F221A407B1892002E
S1130BC0D358FA6CD318FB643B681B090F221A40F4
S1130BD07B189200D358FA6CD318FB64FB6C180092
S1130BE0BD4615B090BDC046487B000080B58CB0B2
S1130BF000AF1423BB620E237B620B233B620923E9
S1130C00FB611C23BB6118237B6128233B61002308
S1130C10FB602F23FB1800221A702E23FB180022DE
S1130C201A700B23FB1800221A70984B1B6C7B6004
S1130C30964B1A6D7B6811001800FFF75DFF0300E7
S1130C403B603A68BB6A9A4203D32F23FB18012204
S1130C501A703A687B6A9A4203D32E23FB18012246
S1130C601A70FA683B68D318FB60884B5B6C7B6036
S1130C70864B5A6D7B6811001800FFF73DFF030097
S1130C803B603A683B6A9A4203D32F23FB18012244
S1130C901A703A68FB699A4203D32E23FB18012287
S1130CA01A70FA683B68D318FB60784B9B6C7B60C6
S1130CB0764B9A6D7B6811001800FFF71DFF030047
S1130CC03B603A683B6A9A4203D32F23FB18012204
S1130CD01A703A68FB699A4203D32E23FB18012247
S1130CE01A70FA683B68D318FB60684BDB6C7B6056
S1130CF0664BDA6D7B6811001800FFF7FDFE0300F8
S1130D003B603A683B6A9A4203D32F23FB180122C3
S1130D101A703A68FB699A4203D32E23FB18012206
S1130D201A70FA683B68D318FB60584B1B6E7B60E3
S1130D30564B1A6F7B6811001800FFF7DDFE0300A5
S1130D403B603A683B6A9A4203D32F23FB18012283
S1130D501A703A68FB699A4203D32E23FB180122C6
S1130D601A70FA683B68D318FB60484B5B6E7B6073
S1130D70464B5A6F7B6811001800FFF7BDFE030055
S1130D803B603A683B6A9A4203D32F23FB18012243
S1130D901A703A68FB699A4203D32E23FB18012286
S1130DA01A70FA683B68D318FB60384B9B6E7B6003
S1130DB0364B9A6F7B6811001800FFF79DFE030005
S1130DC03B603A683B6A9A4203D32F23FB18012203
S1130DD01A703A68FB699A4203D32E23FB18012246
S1130DE01A70FA683B68D318FB60284BDB6E7B6093
S1130DF0264BDA6F7B6811001800FFF77DFE0300B5
S1130E003B603A68BB699A4203D32F23FB18012243
S1130E101A703A687B699A4203D32E23FB18012285
S1130E201A70FA683B68D318FB602F23FB181B78F1
S1130E30002B08D12E23FB181B78002B05D0FA6851
S1130E403B699A4201D3012200E000220B203B18A7
S1130E501A701A7801210A401A703B181B78002B6B
S1130E6009D00A4B5B680A4A1A40084B802149039F
S1130E700A435A6005E0054B5A68044B04490A408A
S1130E805A60C046BD460CB080BDC0460040054017
S1130E90FFFF8FFF80B582B000AF0200FB1D1A7008
S1130EA0FB1D1B787F2B09D8FB1D1B781A001F2301
S1130EB01A40044B012191400A001A60C046BD4605
S1130EC002B080BD00E100E080B582B000AF020056
S1130ED0FB1D1A70FB1D1B787F2B0AD8FB1D1B788A
S1130EE01A001F231340054901229A40C0235B00C6
S1130EF0CA50C046BD4602B080BDC04600E100E015
S1130F0080B586B000AFF860B9607A60FB681B6892
S1130F107B610122BB689A401300DB431A007B69A2
S1130F201A407B6801211940BB6899400B001A43A1
S1130F30FB681A60C046BD4606B080BD80B582B06D
S1130F4000AF78600349044A7B688B50C046BD46B5
S1130F5002B080BD008008402404000080B500AFCA
S1130F60024A034BD3581800BD4680BD0080084098
S1130F701C04000080B500AF034A044B0449D1505F
S1130F80C046BD4680BDC0460080084054040000F1
S1130F9034A5000090B585B002AF0400396010009C
S1130FA01900FB1D221C1A70BB1D021C1A707B1D2C
S1130FB00A1C1A70BB1D1C783A683968FB1D187826
S1130FC01823FB181B7801937B1D1B7800932300C7
S1130FD003F0A8FFC046BD4603B090BD80B500AF86
S1130FE08023DB0501225A64144AB023D3581349E1
S1130FF001221343B0228B50104AE023D3580F49E7
S113100004221343E0228B500D4B1A680C4B8021B1
S113101049010A431A60094AE023D35807490422C4
S11310209343E0228B50054AB023D358034901224D
S11310309343B0228B50C046BD4680BD00400E4055
S11310403440054080B582B000AF78600A00FB1CD4
S11310501A707868FB1C1B7801225340DBB21A001B
S11310600021FFF74DFFC046BD4602B080BD80B5EC
S113107082B000AF786039607B683A689A63C04692
S1131080BD4602B080BD000080B500AFFFF766FF2B
S113109002002023134006D02020FFF74FFF074B08
S11310A001221A7007E080239B001800FFF746FF17
S11310B0034B01221A70C046BD4680BDA800002023
S11310C0A900002080B500AF0A4B5B6810221340D2
S11310D002D0094B01221A70064B00225A600123E8
S11310E05B42044A19001000FFF7C1FFC046BD4629
S11310F080BDC04600400040AA00002080B584B0F6
S113110002AF0200FB1D1A70FB1D1B78002B03D0DD
S1131110FB1D1B78012B35D11C4B0121180001F05C
S113112067FCFFF727FFFB1D1B78002B11D1202044
S1131130FFF704FF012301220521032003F0D2FF5E
S1131140012300930123002205210320FFF722FF3E
S113115012E080239B001800FFF7F0FE0123012218
S11311600921022003F0BEFF012300930123002282
S113117009210220FFF70EFF0B20FFF7A5FE0B202D
S1131180FFF788FEC046BD4602B080BD00250A00B8
S113119080B584B002AF78600A00FB1C1A70284B3B
S11311A00121180001F024FC7B68264A934222D1D5
S11311B01F20FFF76FFE244B0121180001F018FCDB
S11311C07B68180000F032FF7B6800211800FFF7ED
S11311D039FF002301220021022003F083FF0023B2
S11311E004220121022003F07DFF786800230022FD
S11311F0012100F0E5FA7B680021180000F0D8FE18
S11312007B680121180000F0D3FE1049786801239F
S11312100193022300930723062200F0FDFAFB1C2E
S11312201A787B681100180000F0D0FB7B6801215C
S11312301800FFF707FFC046BD4602B080BDC04698
S11312404041050000400040003E040020A107008A
S113125090B589B000AF08243B19186059607A60D2
S1131260FFF7D8FA21007B185A687B181B680649D7
S11312701424381905F098F93B191800FFF7C4FB3A
S1131280C046BD4609B090BD887B0000B0B588B0AB
S113129004AFF860B9601900FB1D1A70BB1D0A1C6D
S11312A01A70BB68FA1D12781A70BB1D1A78BB68D5
S11312B05A60BB68182208218C46BC4462441278E8
S11312C01A72BB687A6A5A61BB681A78F868012393
S11312D003930123029300230193202408257B19FF
S11312E01B191B7800930123002100F07DFC7B195E
S11312F01B191B78002B14D0BB681A78F8680123DB
S113130003930123029300230193202308218C4695
S1131310BC4463441B7800930123002100F064FC67
S11313201CE0BB681A78F868012303930123029335
S113133000230193202308218C46BC4463441B787A
S113134000930123012100F04FFCBA68F8680123DF
S1131350009313000122012100F080FBC046BD462A
S113136004B0B0BDB0B596B004AF38217B180022EC
S11313705A607B1800221A6043217B1800221A70DD
S11313807B181B78714A19001000FFF701FF1C231A
S1131390F9186E4801230293002301930823009354
S11313A001230522FFF772FF3900684800230293E6
S11313B0002301930823009300230622FFF766FF0E
S11313C0634B1B78DBB2002B43D01C257B195B6875
S11313D05A1C7B195A607B191B7A1C007B195968AB
S11313E05C4A7B19093318000B00210005F0AAF8A8
S11313F07A1956480123002100F066FC0020FFF70B
S1131400DDF80120FFF7B8F838217B181B685A1C57
S11314107B181A6000237B6409E01C23FA187B6C98
S1131420D318093300221A707B6C01337B641C23AC
S1131430FB181B7A1A007B6C9342EED31C23FA1818
S11314403823FB1818685968FFF702FF404B002245
S11314501A70414B1B78DBB2002B43D01C257B193F
S11314605B685A1C7B195A607B191B7A1C007B1918
S113147059683A4A7B19093318000B00210005F01A
S113148061F87A1931480123002100F01DFC012084
S1131490FFF794F80020FFF76FF838217B181B68DA
S11314A05A1C7B181A6000237B6409E01C23FA1879
S11314B07B6CD318093300221A707B6C01337B6474
S11314C01C23FB181B7A1A007B6C9342EED31C235B
S11314D0FA183823FB1818685968FFF7B9FE1E4B31
S11314E000221A701E4B1B78DBB2002B00D167E779
S11314F000237B6408E03A007B6CD3180933002294
S11315001A707B6C01337B643B001B7A1A007B6C82
S11315109342F0D33B000D481A00012100F0BAFCBD
S11315200020FFF76DF80120FFF76AF838217B18D7
S11315305B685A1C7B185A603A007B181868596813
S1131540FFF786FE064B00221A7039E70040004080
S1131550A8000020947B0000A9000020A07B0000CC
S1131560AA000020B0B58AB000AF10243B192F4A5E
S113157023CA23C312681A603B1900229A723B1DC6
S11315802B4A23CA23C3FFF729FD3B19180003F094
S113159023F83B1D180002F0A9F90421112001F0E1
S11315A0F9FF00237B620420FEF770FE03003B6218
S11315B0204B180004F000FF3A6A1F4B110018007A
S11315C004F0FAFE1D4B180004F0F6FE04F08CFD46
S11315D003007B627B6A0133F8D07B6ADBB21A00BA
S11315E0174B1100180004F0E7FE7B6A04337A6A93
S11315F0796A144804F0E0FE0020FFF77FFD012023
S1131600FFF77CFD0020FFF7B1F90F4B1800FFF73F
S1131610FBF9FEF781FF0020FEF7F2FFFFF7A2FEC1
S113162000231800BD460AB0B0BDC046587C000077
S1131630687C0000AC7B0000C47B0000E07B000001
S1131640107C0000287C00004C7C000080B582B037
S113165000AF78603960FEE780B586B000AFF8600F
S1131660B9607A60FB681B687B610122BB689A40A1
S11316701300DB431A007B691A407B68012119407F
S1131680BB6899400B001A43FB681A60C046BD460C
S113169006B080BD80B584B000AF786039607B68E7
S11316A0C022D20494466344FB60FB683A681A6023
S11316B0C046BD4604B080BD80B584B000AF78603C
S11316C039607B688022D20494466344FB60FB68E3
S11316D03A681A60C046BD4604B080BD80B584B087
S11316E000AFF860B9607A60BA68FB68110018004E
S11316F0FFF7E2FF7A68FB6811001800FFF7CAFFE2
S1131700C046BD4604B080BD80B582B000AF7860ED
S11317100A00FB1C1A707868FB1C1B7801225340DA
S1131720DBB21A000021FFF797FFC046BD4602B0A6
S113173080BD80B582B000AF78607B681B680122F1
S113174013405A425341DBB21800BD4602B080BD7B
S113175080B582B000AF78600A00FB1C1A70C046E6
S1131760FB1C1B787A685B01D31878331A688023D2
S11317701B021340F4D1C046BD4602B080BD000038
S113178080B582B000AF78607B680A4A934206D184
S1131790094B180001F092F903005B0805E0074BC0
S11317A091211800FFF752FF00231800BD4602B034
S11317B080BDC04600400040003E0400747C000030
S11317C0B0B584B000AFF8600C00100019000B2510
S11317D07B19221C1A700823FB18021C1A80BB1DDB
S11317E00A1C1A807B191B78002B0DD00823FB18C8
S11317F01B889B001A00BB1D1B881B02134301227C
S11318001A43FB681A6502E0FB6800221A65C046A9
S1131810BD4604B0B0BD0000B0B58CB000AFF860F8
S1131820B9601900BB1D1A803B1D0A1C1A80BB1D20
S11318301B88082B03D8BB1D1B88002B07D1122340
S1131840FF331A00604B11001800FFF7FFFE3B1D29
S11318501B88082B03D83B1D1B88002B06D189232A
S11318605A00594B11001800FFF7F0FE4023FB18F3
S11318701B88082B04D84023FB181B88002B07D196
S11318801423FF331A00504B11001800FFF7DEFE3B
S1131890BB68002B06D18A235A004B4B1100180059
S11318A0FFF7D4FE4423FA183B1D12881B889A4282
S11318B00CD84423FB184022B9181A880B889A4282
S11318C004D84423FB181B88002B07D11823FF33AB
S11318D01A003D4B11001800FFF7B8FE3B1D1A8893
S11318E0BB1D1B88D318FB624023FB181A88FB6AB4
S11318F0D3180133BB62FB681800FFF741FF0300F4
S11319007B62BB6ABA6853431900786A04F05EFCD0
S113191003003B623B6A002B06D191235A002A4BF9
S113192011001800FFF792FE3B6A013B3B623B6AE1
S11319309B09FB613B6A3F221340BB61FB690F2B90
S113194006D996235A00204B11001800FFF77EFE9B
S113195017257C19FB681800FFF7EBFE03002370C2
S1131960FB681B6841221A43FB681A604423FB1876
S11319701B88013B9B011A00BB691A43FB6A013BAC
S11319801B0213434022BA181288013A12031A4365
S1131990FB68DA60FB68FA699A617B191B78002B93
S11319A007D0FB681B68412293431A00FB681A6046
S11319B006E0FB681B68402293431A00FB681A6028
S11319C0C046BD460CB0B0BD747C000080B582B08A
S11319D000AF78600A00FB1C1A70FB1C1B78042BF8
S11319E034D89A001C4BD3181B689F467B681B682D
S11319F080221A437B681A607B6800225A617B68E4
S1131A001B68802293431A007B681A607B680E224D
S1131A101A601CE07B688E221A607B6804225A617B
S1131A2015E07B688E221A607B6810225A610EE0F2
S1131A307B688E221A607B6818225A6107E07B68F3
S1131A408E221A607B6808225A6100E0C046C046B4
S1131A50BD4602B080BDC046D87C000090B587B0BA
S1131A6000AFF860080011007B600B23FB18021C18
S1131A701A700A23FB180A1C1A707B681B78002B47
S1131A8003D07B681B78202B06D9D0235A00524BF5
S1131A9011001800FFF7DAFD0B243B191B78033300
S1131AA05B01FA68D3187B613B191A78FB68110053
S1131AB01800FFF74DFE7B6930221A607B681A78A4
S1131AC03B191978F868012300F0C4FB7B691B6893
S1131AD080221A437B691A607B699B685B005A0801
S1131AE07B699A607B681A783B191978F868012336
S1131AF000F0B0FB7B691B6840221A437B691A60C3
S1131B007B690C3318000A23FB181B781A000C217C
S1131B10FFF7A2FD7B685B78002B18D07B685B68BD
S1131B202E4A934206D9DD235A002B4B110018008C
S1131B30FFF78CFD7B699B685B0F5A077B685B68CA
S1131B401343C02212061A437B699A6018E07B682B
S1131B505B68234A934206D9E0235A001E4B1100C6
S1131B601800FFF773FD7B699B685B0F5A077B685E
S1131B705B689B041343802212061A437B699A60B4
S1131B807B681B7E002B04D07B685A697B695A6092
S1131B9006E07B685B699B04124A1A407B695A60C1
S1131BA07B695B687A68127ED1077A68527E9207F5
S1131BB00A431A437B695A607B681A782823FB1806
S1131BC01C780B23FB181978F868230000F042FBFB
S1131BD0C046BD4607B090BD747C0000FFFFFF1FE8
S1131BE0FF0700000000FC1F90B585B000AF7860CF
S1131BF00C0010001900FB1C221C1A70BB1C021CD8
S1131C001A707B1C0A1C1A70FB1C1B7803335B01C3
S1131C107A68D318FB60BB1C1B78002B03D0BB1C59
S1131C201B78202B06D981239A00254B110018001C
S1131C30FFF70CFDFB1C1A787B6811001800FFF7F6
S1131C4087FDFB6830221A60BB1C1A78FB1C1978CC
S1131C507868012300F0FEFAFB681B6880221A43AF
S1131C60FB681A60FB689B68164A13407A1C12785A
S1131C70D20713432022BA18127852071A43FB687A
S1131C809A602823FB181B78DB011A002423FB1815
S1131C901B785B021343C02212011A43FB68DA600B
S1131CA02C23FB181C78BB1C1A78FB1C1978786849
S1131CB0230000F0CFFAC046BD4605B090BDC04633
S1131CC0747C0000FFFFFF5FB0B586B000AFF86022
S1131CD008007A6019000B243B19021C1A700A23AD
S1131CE0FB180A1C1A703B191B7803335B01FA6852
S1131CF0D3187B617B681B78002B03D07B681B782F
S1131D00202B05D95C4A5D4B11001800FFF79EFC9F
S1131D107B681B7A0F2B05D9594A584B11001800C0
S1131D20FFF794FC0B243B191A78FB681100180088
S1131D30FFF70EFDFB680433072207211800FFF7A5
S1131D40CDFC7B6930221A607B681A783B191978BC
S1131D50F868012300F07EFA7B691B6880221A432D
S1131D607B691A607B699B685B005A087B699A608F
S1131D707B681A783B191978F868012300F06AFA2D
S1131D807B691B6803221A437B691A607B69DA68E2
S1131D9080239B00134005D07B699A6880239B05B0
S1131DA0134013D17B69DB68802252001A437B699C
S1131DB0DA607B69DA6880239B00134006D17B6973
S1131DC0DB68802212021A437B69DA607B69DB6874
S1131DD00F2293437A68127A1A437B69DA607B682C
S1131DE05B78002B17D07B685B68264A934205D941
S1131DF0254A224B11001800FFF728FC7B699B68D9
S1131E005B0F5A077B685B681343C02212061A43B0
S1131E107B699A6018E07B685B681C4A934205D929
S1131E201B4A164B11001800FFF710FC7B699A68D7
S1131E3080239B051A407B685B689B0413438022C4
S1131E4012061A437B699A607A680B257B19197804
S1131E50FB68180000F07EF97B681A780A23FB18E7
S1131E601C787B191978F868230000F0F3F9C04650
S1131E70BD4606B0B0BDC04647020000747C0000F9
S1131E8049020000FFFFFF1F71020000FF0700006E
S1131E907702000090B58BB000AFF8607A600B2039
S1131EA03B180A1C1A703B181B7803335B01FA6851
S1131EB0D318FB617B681B78002B03D07B681B78ED
S1131EC0202B05D9384A394B11001800FFF7BEFB07
S1131ED00B243B191A78FB6811001800FFF738FC33
S1131EE0FB697F221A607B681A783B191978F868B5
S1131EF0012300F0AFF9FB69DB68DBB20F2213406A
S1131F00DAB27B681A727B681B7A082B06D9AD2378
S1131F109A00264B11001800FFF798FBFB691B6918
S1131F207B6200233B620DE07B6AD9B27A683B6A2C
S1131F30D31809330A1C1A707B6A1B0A7B623B6A3A
S1131F4001333B621B217B187A68127A1A700423CE
S1131F507B617B181A787B69934200D913003A6A33
S1131F609342E1D87B681B7A032B19D9FB695B691F
S1131F707B6200233B620DE03B6A04337A6AD1B290
S1131F807A68D3180A1C5A727B6A1B0A7B623B6A02
S1131F9001333B627B681B7A043B3A6A9A42EBD377
S1131FA0C046BD460BB090BD9F020000747C00008B
S1131FB080B584B000AF78600A00FB1C1A70FB1C6B
S1131FC01B7803335B017A68D318BB60FB1C1A7857
S1131FD07B6811001800FFF7BBFBBB68F3221A6093
S1131FE0BB68114A5A60BB6800229A60BB68002231
S1131FF0DA60BB6800221A61BB6800225A610123BF
S1132000FB600AE0FB68DAB2FB1C197878680123EC
S113201000F020F9FB680133FB60FB68202BF1DD45
S1132020C046BD4604B080BDFFFFFFDF80B584B06D
S113203000AF78607B6800211800FFF789FB7B689C
S113204001211800FFF784FB7B6800211800FFF7CB
S11320505BFB7B6800225A607B681B6840221A4342
S11320607B681A607B68394ADA607B681B684022A7
S113207093431A007B681A607B681B6880221A43AA
S11320807B681A607B6800225A617B681B68802227
S113209093431A007B681A607B6800229A617B680C
S11320A00022DA627B6800225A637B6800229A630A
S11320B07B6801225242DA637B6800225A647B689F
S11320C000229A647B680122DA647B6800221A6524
S11320D00023FB6033E07B68FA680332520100217D
S11320E0D1507A68FB6803335B01D3180433184A70
S11320F01A607A68FB685B01D318683300221A609F
S11321007A68FB685B01D3186C3300221A607A6822
S1132110FB685B01D318703300221A607A68FB688D
S11321205B01D318743300221A607A68FB685B0180
S1132130D318783301221A60FB680133FB60FB6813
S1132140012BC8DDC046BD4604B080BD012300009C
S1132150FFFFFFDF80B58CB000AFF8607A600B231F
S1132160FB180A1C1A701023FB18180008231A0005
S1132170002104F018F90823BB6227217B187A6830
S1132180127A1A707B181A78BB6A934200DD130026
S11321903B620B23FB181B7803335B01FA68D318EB
S11321A0FB610023FB620DE07A68FB6AD3180933F4
S11321B019781023FA18FB6AD3180A1C1A70FB6AE0
S11321C00133FB62FA6A3B6A9A42EDD30B23FB1894
S11321D01A78FB6811001800FFF7BAFA10217B186F
S11321E01B78BB617B185B781B021A00BB69134325
S11321F0BB617B189B781B041A00BB691343BB614A
S11322007B18DB781B061A00BB691343BB61FB69AF
S1132210BA691A617B181B79BB617B185B791B0255
S11322201A00BB691343BB617B189B791B041A001A
S1132230BB691343BB617B18DB791B061A00BB69BE
S11322401343BB61FB69BA695A61C046BD460CB011
S113225080BD000090B585B000AF78600C00100020
S11322601900FB1C221C1A70BB1C021C1A707B1C5C
S11322700A1C1A70FB1C1B7803335B017A68D318A1
S1132280FB60BB1C1B78002B03D0BB1C1B78202BD2
S113229006D9E1239A000F4B11001800FFF7D6F975
S11322A0FB1C1A787B6811001800FFF751FABB1C5D
S11322B01A78FB689A617B1C1B78002B06D0FB1CE8
S11322C01A787B6811001800FFF742FAC046BD4631
S11322D005B090BD747C000080B586B000AFF86096
S11322E0B9607A60FB681B687B610122BB689A4015
S11322F01300DB431A007B691A407B6801211940F3
S1132300BB6899400B001A43FB681A60C046BD467F
S113231006B080BD80B582B000AF786039607B685C
S11323201A683B68DA401300012213401800BD46C6
S113233002B080BD80B582B000AF78607B681F2B8F
S113234005D9074A074B11001800FFF77FF901224E
S11323507B689A4013001800BD4602B080BDC04699
S11323604E0A0000EC7C000080B584B000AF7860B9
S11323707B68144A934205D9134A144B1100180080
S1132380FFF764F97B680133180003F0ABFF030027
S1132390DBB21A001F239B1AFB60FB681800FFF7CF
S11323A0C9FF0300013B7A689A4205D0084A074BEB
S11323B011001800FFF74AF9FB681800BD4604B085
S11323C080BDC046FF7F0000630A0000EC7C000073
S11323D0690A000080B500AFC046054B1221180001
S11323E0FFF798FF031EF8D1C046BD4680BDC04626
S11323F004300E4080B500AFFFF7ECFF044B5B6880
S11324001B0C03221340DBB21800BD4680BDC0463E
S113241000300E4080B584B000AF78600123FB60CB
S11324207B68144A934204D80023FB600023BB60FA
S113243008E07B68104A934202D80123BB6001E0A4
S11324400223BB60FB680D481A001021FFF744FF0C
S11324500A4A80235B00D358094A1A40BB681B060A
S113246006491A4380235B00CA50C046BD4604B0E7
S113247080BDC0460048E8010090D00300400E40F3
S1132480FFFFFFFC80B582B000AF044B1B687B608C
S11324907B681800BD4602B080BDC0461400002011
S11324A080B582B000AFFEF711F903007B60074AE4
S11324B080235B00D3581B0A1F22134001337A6820
S11324C053431800BD4602B080BDC04600400E40D4
S11324D090B583B000AFFC1C114B180000F050FF06
S11324E003002370FB1C1B78072B06D0092B09D192
S11324F0FEF7ECF803007B600DE0FFF7C3FF030079
S11325007B6008E000237B60064A074B110018003B
S1132510FFF79CF8C0467B681800BD4603B090BD29
S113252006000E009A0A0000507D0000B0B584B089
S113253000AF78607B68002B0DD10B257C191F4BF5
S1132540180000F01DFF03002370C0467B191B78A0
S1132550042B1AD007E01A4A1A4B11001800FFF78F
S113256075F8002325E0042B02DC012B05D016E0CE
S1132570072B05D0082B0DD011E00023FB6017E0DA
S1132580FFF780FF0300FB6012E0FEF7D7F80300BB
S1132590FB600DE0FFF784FF0300FB6008E000230D
S11325A0FB60094A074B11001800FFF74FF8C046BB
S11325B0FB681800BD4604B0B0BDC046B800320088
S11325C0BA0A0000507D0000D10A000080B584B032
S11325D000AF786039608023DB055A68C0239B0410
S11325E01340FB600023BB6013E01F4ABB68DB00A1
S11325F0D31804331A783B68DBB29A4206D11A4BDB
S1132600BA68D200D3587A689A4206D9BB680133B3
S1132610BB60BB68042BE8D900E0C046BB68052B4F
S113262008D10323FB60114A114B11001800FFF776
S11326300DF806E00C4ABB68DB00D31805331B78A1
S1132640FB60FB681B06FB608023DB055B68094AB3
S1132650134019008023DB05FA680A435A60C04618
S1132660BD4604B080BDC046B47D0000D80B000058
S1132670507D0000FFFFFFFC80B582B000AF8023D7
S1132680DB051A6CFB1D511E8A411A708023DB0581
S11326900A4A1A64FEF712F8030000211800FFF733
S11326A095FFFB1D1B78002B03D08023DB05002244
S11326B01A64C046BD4602B080BDC046711B00000E
S11326C090B585B000AF786039608023DB051A6C63
S11326D00F243B19511E8A411A708023DB050A4AD4
S11326E01A643A687B6811001800FFF76FFF3B1902
S11326F01B78002B03D08023DB0500221A64C0461C
S1132700BD4605B090BDC046711B000080B500AF4A
S1132710034B5B6A1B09032213401800BD4680BDAE
S113272000400E4080B582B000AF7860064B5B6A13
S11327303022934319007B681A01034B0A435A62FF
S1132740C046BD4602B080BD00400E4090B585B085
S113275000AF78600023BB607B683E4A93420CD094
S11327603D4A934209D03D4A934206D03C4A3D4BF0
S113277011001800FEF76AFF00E0C0467B681800ED
S113278000F0FEFD0300FB607B68324A93420CD0EC
S1132790314A934210D0314A934214D1324A8023B1
S11327A0D35807221340FB6014E02F4A8423D358E4
S11327B007221340FB600DE02B4A8823D3580722DD
S11327C01340FB6006E0294A264B11001800FEF76F
S11327D03DFFC046FB68042B2DD8FB689A00244BB0
S11327E0D3181B689F46FDF7BFFF0300BB602BE0B7
S11327F0FDF7C8FF0300BB6026E0FDF7BCFF030044
S1132800BB6021E0FDF736FF0400174A80235B001C
S1132810D3581B0E0322134001331800FFF78AFD1F
S113282003001900200003F0D1FC0300BB600BE09F
S11328300023BB6008E00023BB600E4A094B110073
S11328401800FEF703FFC046BB681800BD4605B07C
S113285090BDC046030020000500240002001E00B5
S1132860C90C0000507D000000400E40F80C000030
S1132870DC7D00004A0D000080B582B000AF7860B6
S1132880094AA2235B00D3580122134008D1C04651
S1132890054AA0235B00D3587A681340F8D100E0BE
S11328A0C046BD4602B080BD00400E4080B500AFBA
S11328B0084B0321180000F0CFFA074B032118003E
S11328C000F0CAFA054B0321180000F0C5FAC0460F
S11328D0BD4680BD404105005041070060410900EC
S11328E080B582B000AFFDF7F1FE03003B60FFF757
S11328F081FD0300022B22D13B682C4A9446634499
S11329002B49180003F062FC03007B607B68002BFA
S113291002D07B68013B7B607B68264A190010006B
S113292000F09AFA7B68244A1900100000F094FA27
S11329307B68224A1900100000F08EFA31E03B68EF
S11329401F4A944663441F49180003F03FFC0300E8
S11329507B607B68002B02D07B68013B7B607B68DB
S1132960144A1900100000F077FA7B68134A190022
S1132970100000F071FA3B68134A9446634413490B
S1132980180003F023FC03007B607B68002B02D05B
S11329907B68013B7B607B68074A1900100000F0EC
S11329A05BFAC046BD4602B080BDC046FF2C310173
S11329B0002D3101404105005041070060410900EC
S11329C07FF0FA0280F0FA02FFA14A0400A24A044E
S11329D080B582B000AF786039603B685A1E7B686E
S11329E01100180000F038FAC046BD4602B080BDA0
S11329F080B586B000AF78600A00FB1C1A70002313
S1132A003B617B681B0A0F2213400E2B23D89A00CC
S1132A101F4BD3181B689F461E4B7B6122E01E4B45
S1132A207B611FE01D4B7B611CE01D4B7B6119E04A
S1132A301C4B7B6101233B6114E01B4B7B61102326
S1132A403B610FE0194B7B6180235B023B6109E032
S1132A50174B7B6106E0174A174B11001800FEF76D
S1132A60F5FD12E07B681B0B1F221340FB603B69E2
S1132A70002B03D03B691800FFF7FEFEFB1C1A78FD
S1132A80F9687B691800FFF727FCBD4606B080BDD6
S1132A90F07D000000400E40B0400E40C0400E40AB
S1132AA0C4400E40E0400E40E8400E40F0400E406E
S1132AB050410E403C110000507D000080B584B0B0
S1132AC000AF78607A68F8239B031340A022520376
S1132AD0934200D1F8E0A0225203934239D88022D5
S1132AE01203934200D19CE080221203934216D831
S1132AF080229202934200D1B9E080229202934252
S1132B0003D8002B00D161E08CE18022D2029342F1
S1132B1061D0C022D202934200D16FE082E1C02290
S1132B201203934200D1B5E0C0221203934205D8A8
S1132B30A0221203934200D186E073E1E022120343
S1132B40934200D151E180225203934200D151E1DA
S1132B5068E190229203934200D13FE190229203D4
S1132B60934219D8D0225203934200D105E1D022D6
S1132B705203934205D8B0225203934200D1B4E0E9
S1132B8050E1F0225203934200D196E08022920356
S1132B90934200D1EAE045E1B8229203934200D186
S1132BA0D3E0B8229203934205D8A8229203934219
S1132BB000D1B2E036E1C0229203934200D1F4E0A6
S1132BC0C8229203934200D119E12BE1FDF77EFD67
S1132BD00300FB602FE1FDF779FD0300FB60984AD9
S1132BE086235B00D3581B0ADB05DB0D0133190078
S1132BF0F86803F0EBFA0300FB601CE1FDF766FDE7
S1132C000300FB608E4A8C235B00D3581B0ADB0550
S1132C10DB0D01331900F86803F0D8FA0300FB60F8
S1132C2009E1FDF753FD0300FB60854A8E235B0039
S1132C30D3581B0ADB05DB0D01331900F86803F0D8
S1132C40C5FA0300FB60F6E0FDF740FD0300FB60FE
S1132C507B4A82235B00D3581B0ADB05DB0D01335F
S1132C601900F86803F0B2FA0300FB60E3E0FDF733
S1132C702DFD0300FB60724A84235B00D3581B0ABA
S1132C80DB05DB0D01331900F86803F09FFA03003C
S1132C90FB60D0E0FDF71AFD0300FB60684A8A235D
S1132CA05B00D3581B0A1F22134001331900F86834
S1132CB003F08CFA0300FB60BDE0624B1800FFF7E1
S1132CC045FD0300FB60B6E05F4B1800FFF73EFDD7
S1132CD00300FB605A4A98235B00D3580322134035
S1132CE0FA68DA401300FB60A5E0564B1800FFF7C2
S1132CF02DFD0300FB60524A90235B00D3581B094F
S1132D000F2213401800FFF715FB03001900F868A1
S1132D1003F05CFA0300FB608DE04A4B1800FFF7F8
S1132D2015FD0300FB60464A90235B00D3581B0A41
S1132D30072213401800FFF7FDFA03001900F86892
S1132D4003F044FA0300FB6075E03E4B1800FFF704
S1132D50FDFC0300FB603A4A90235B00D358032236
S1132D601340FA68DA401300FB6064E0374B180044
S1132D70FFF7ECFC0300FB605DE0344B1800FFF749
S1132D80E5FC0300FB602E4A94235B00D3581B0927
S1132D90032213401800FFF7CDFA03001900F86866
S1132DA003F014FA0300FB6045E0284B1800FFF71A
S1132DB0CDFC0300FB60224A94235B00D3581B0A1A
S1132DC00322134004331800FFF7B4FA0300190078
S1132DD0F86803F0FBF90300FB602CE01A4B1800C1
S1132DE0FFF7B4FC0300FB6025E0FFF771FB030071
S1132DF0FB6020E0FFF746FB0300FB601BE00020C4
S1132E00FFF794FB0300FB600D4AAE235B00D3582D
S1132E100322134001331900F86803F0D7F90300C3
S1132E20FB6008E00023FB60094A0A4B110018000C
S1132E30FEF70CFCC046FB681800BD4604B080BD1C
S1132E4000400E4002001E00050024000300200084
S1132E5062120000507D000080B584B000AF78603D
S1132E6039607B681B090F221340FB60FB680C2B45
S1132E7000D962E2FB689A00DF4BD3181B689F46B7
S1132E803B681F2B05D9DD4ADD4B11001800FEF706
S1132E90DDFBFFF7F1FBDB4B1800FFF7BBFAFFF795
S1132EA005FDD94A80235B00D358D84A1A403B68B1
S1132EB01B02D5491A4380235B00CA50FDF7DAFB95
S1132EC00300BB60FFF796FA03001A00BB68110009
S1132ED01800FFF7F5FBCE4B1800FFF7EFFD0300DA
S1132EE01800FFF797FAFFF7FBFC2DE23B681F2B56
S1132EF005D9C84AC24B11001800FEF7A7FBC24A05
S1132F008A235B00D358C14A1A403B681B02BE495E
S1132F101A438A235B00CA5016E23B68BE4A9342B6
S1132F2005D9BE4AB64B11001800FEF78FFBB64A0E
S1132F3086235B00D358BA4A1A403B681B02B24945
S1132F401A4386235B00CA50FEE13B68B24A9342AF
S1132F5005D9B44AAA4B11001800FEF777FBAA4A18
S1132F608C235B00D358AE4A1A403B681B02A64927
S1132F701A438C235B00CA50E6E13B68A64A93429D
S1132F8005D9A94A9E4B11001800FEF75FFB9E4A23
S1132F908E235B00D358A24A1A403B681B029A490D
S1132FA01A438E235B00CA50CEE13B689A4A93428F
S1132FB005D99E4A924B11001800FEF747FBFFF714
S1132FC05BFB904B1800FFF725FA8F4A84235B00C4
S1132FD0D358934A1A403B681B028B491A438423F3
S1132FE05B00CA50FDF746FB0300BB60FFF702FA23
S1132FF003001A00BB6811001800FFF761FB844B43
S11330001800FFF75BFD03001800FFF703FA9BE1CC
S11330107B68874A934200D16FE0854A934206D881
S1133020844A93420AD0844A934223D087E0834A55
S1133030934262D0824A93423FD080E03B68022BA5
S113304005D9804A6E4B11001800FEF7FFFA802361
S1133050DB021800FFF710FC6B4A98235B00D3587F
S1133060032293431A0068493B681A4398235B0080
S1133070CA506BE03A6880231B029A4205D9724A0F
S11330805F4B11001800FEF7E1FA3B681800FFF7E8
S11330906BF903003B600420FFF7EEFB5A4A9023D0
S11330A05B00D358F02293431A003B681B01564936
S11330B01A4390235B00CA5048E03B68082B05D9AB
S11330C0624A4F4B11001800FEF7C0FA3B68180023
S11330D0FFF74AF903003B600420FFF7CDFB4A4A9F
S11330E090235B00D358032293431A0046493B685C
S11330F01A4390235B00CA5028E03A6880231B02DD
S11331009A4205D9524A3E4B11001800FEF79EFA26
S11331103B681800FFF728F903003B600420FFF721
S1133120ABFB394A90235B00D3584A4A1A403B68A8
S11331301B0235491A4390235B00CA5006E0464AF5
S11331402F4B11001800FEF781FAC046FCE07B68A3
S1133150424A934203D0424A934221D044E03B681E
S1133160082B05D93F4A264B11001800FEF76EFACA
S11331703B681800FFF7F8F803003B604020FFF7B6
S11331807BFB214A94235B00D358302293431A00DB
S11331903B681B011C491A4394235B00CA502AE074
S11331A03B687F2B02D83B680E2B05D82E4A144B64
S11331B011001800FEF74AFA3B681800FFF7D4F82C
S11331C00300043B3B604020FFF756FB0E4A942368
S11331D05B00D358254A1A403B681B020A491A432C
S11331E094235B00CA5006E0214A054B11001800E5
S11331F0FEF72CFAC046A7E02C7E00005513000011
S1133200507D00000148E80100400E40FFE0FFFF50
S113321000050A006B130000FF0100007213000098
S1133220FF00FEFF791300008113000088130000E3
S113323080002A00A00914008016160000262C0025
S113324080062E00AD130000CA130000E81300002E
S1133250F8130000FFF8FFFF0614000090171A008F
S1133260902730000F1400002D140000FFFCFFFF16
S11332703C1400007B68364A93421BD13B68022B06
S113328005D9344A344B11001800FEF7DFF98023C6
S1133290DB021800FFF7F0FA304A98235B00D3589A
S11332A0032293431A002D493B681A4398235B0079
S11332B0CA5006E02A4A284B11001800FEF7C6F946
S11332C0C04641E07B68274A934216D13B68032BF2
S11332D005D9254A204B11001800FEF7B7F91F4AFB
S11332E0AE235B00D358032293431A001B493B6867
S11332F01A43AE235B00CA5006E01C4A164B110069
S11333001800FEF7A3F9C0461EE03B68184A934232
S113331005D9184A104B11001800FEF797F90F4A07
S113332082235B00D358144A1A403B681B020B49A2
S11333301A4382235B00CA5006E0104A064B110070
S11333401800FEF783F9C046C046BD4604B080BDF0
S1133350A009140046140000507D000000400E40F7
S113336056140000B8003200611400006F1400000D
S1133370FF01000077140000FF00FEFF7E14000030
S113338080B584B000AF78600F23FB1801221A7057
S11333907B680F221340BB60BB68082B00D9DCE0BC
S11333A0BB689A00764BD3181B689F46754A9423D2
S11333B0D35807221340072B1DD89A00724BD318F9
S11333C01B689F460F23FB1802221A7018E00F2374
S11333D0FB1803221A7013E00F23FB1804221A703F
S11333E00EE00F23FB180B221A7009E00F23FB18C1
S11333F00C221A7004E00F23FB1805221A70C04631
S1133400B6E0604A8023D35807221340022B08D029
S1133410042B0BD0012B0ED10F23FB1803221A709F
S11334200EE00F23FB1802221A7009E00F23FB1889
S11334300A221A7004E00F23FB1801221A70C046F6
S113344096E0504A8423D35807221340022B0DD010
S113345002D8012B05D018E0032B11D0042B0AD07D
S113346013E00F23FB1803221A7013E00F23FB1839
S113347002221A700EE00F23FB180A221A7009E0C8
S11334800F23FB1806221A7004E00F23FB180122F5
S11334901A70C0466CE03B4A8823D3580722134075
S11334A0022B08D0042B0BD0012B0ED10F23FB18B9
S11334B003221A700EE00F23FB1802221A7009E08F
S11334C00F23FB180A221A7004E00F23FB180122B1
S11334D01A70C0464CE02B4B1B6F0322134006D0DE
S11334E0012B09D10F23FB1809221A7009E00F23BD
S11334F0FB1807221A7004E00F23FB1801221A702C
S1133500C04635E01F4AAE235B00D3583022134037
S1133510102B0DD002D8002B05D018E0202B0CD096
S1133520302B0FD013E00F23FB1801221A7013E085
S11335300F23FB1807221A700EE00F23FB18042236
S11335401A7009E00F23FB1808221A7004E00F23F5
S1133550FB1801221A70C0460AE00F23FB18002250
S11335601A700A4A0A4B11001800FEF76FF8C04699
S11335700F23FB181B781800BD4604B080BDC0465D
S1133580607E000000400E40847E0000761600003D
S1133590507D000080B58AB000AF78600A00FB1C43
S11335A01A7003237B622323FB1803221A7000235F
S11335B0BB6100237B617B68112B1ED1FB1C1B7834
S11335C0042B04D1FDF7BAF803007B610DE0FB1C6A
S11335D01B78052B09D100F07FF90200AA4B9A420F
S11335E003D900F079F903007B617B69002B04D0D7
S11335F07B690021180000F067FC7B680F221340F0
S11336003B613B69082B00D933E13B699A009F4B2E
S1133610D3181B689F46FB1C1B780C2B3DD89A00C3
S11336209B4BD3181B689F4604237B622323FB1800
S113363000221A7038E003237B622323FB18012243
S11336401A7031E002237B622323FB1802221A70D2
S1133650904B1800FEF7DEFE26E001237B62232355
S1133660FB1803221A708B4B1800FEF7D3FE1BE0E5
S113367005237B622323FB1803221A7014E007231B
S11336807B622323FB1806221A700DE0824A834BC7
S113369011001800FDF7DAFFF2E0814A7F4B1100B8
S11336A01800FDF7D3FFEBE02323FB181B78062B50
S11336B007D02323FB181B7801220121180000F0F6
S11336C083F9FEF7D9FFFFF7F1F87B69002B01D0EE
S11336D0FEF780FE734B7A6A5A67734B1800FFF744
S11336E0EDF903001800FEF795FEFCF7C3FF030095
S11336F0FB60FEF77FFE03001A00FB681100180050
S1133700FEF7DEFF7B69002B03D10121002000F0CE
S1133710DBFBFFF7E5F8B3E0644BBB61FB1C1B78F4
S1133720062B05D1624A5D4B11001800FDF78EFF90
S1133730BB69002B01D0BB6900E05E4BBB61FB1C85
S11337401B78062B05D15C4A544B11001800FDF779
S11337507DFFBB69002B01D0BB6900E0574BBB6107
S1133760FB1C1B780A2B29D89A00554BD3181B68CD
S11337709F460023FB6128E001220121002000F084
S113378023F90223FB6120E001220121012000F042
S11337901BF90123FB6118E0FCF76CFF0300180020
S11337A0FEF738FE474B012200211800FEF794FD76
S11337B00323FB6109E00423FB6106E0424A374B23
S11337C011001800FDF742FF5AE0BB69FA691A605C
S11337D056E0FB1C1B78072B02D0092B04D007E012
S11337E0304B00221A670AE02E4B01221A6706E0CA
S11337F0364A2A4B11001800FDF728FF40E03FE04D
S1133800FB1C1B78042B13D002DC012B05D01AE01F
S1133810072B05D0082B13D015E00023FB6119E01A
S113382001220121042000F0CFF80123FB6111E003
S113383001220121022000F0C7F80223FB6109E004
S11338400323FB6106E0224A144B11001800FDF724
S1133850FDFE15E0134AAE235B00D3583022934398
S11338601A00FB691B010F491A43AE235B00CA50BF
S113387006E0184A094B11001800FDF7E7FEC046A0
S1133880BD460AB080BDC046002D3101A47E0000B3
S1133890C87E00000148E80134170000507D000094
S11338A03917000000400E4000050A0080400E4019
S11338B07517000088400E408917000084400E40B0
S11338C0FC7E0000B0400E40AE1700003818000027
S11338D0961800006D19000080B500AF024B1B68FC
S11338E01800BD4680BDC0460C00002080B584B0E1
S11338F000AF78601120FFF743FD0300042B05D1CE
S1133900294A2A4B11001800FDF7A0FE01220021CC
S1133910022000F059F80023FB607B68DB7A012B5E
S113392009D0022B04D0002B08D10023FB600CE04B
S11339300323FB6009E00123FB6006E01C4A1B4BE8
S113394011001800FDF782FEC0461A4B5B6A032281
S113395093431900174BFA680A435A627B681B8821
S1133960DB027A6892881A43124BDA62114B1B6BA2
S11339701B0D1B057A685288D2021A437B68DB88C8
S113398019000C4B0A431A637B681B7A1A037B6881
S11339905B7A1B0113437A68927A1A43054B5A6384
S11339A0C046BD4604B080BD1D1C0000507D000013
S11339B0311C000000400E4080B582B000AF78603A
S11339C0C046BD4602B080BD90B589B000AF0400CA
S11339D008001100FB1D221C1A70BB1D021C1A706A
S11339E07B1D0A1C1A70FB1D1B78042B33D89A000C
S11339F0654BD3181B689F4601237B6102233B61FF
S1133A000123FB610023BB612CE004237B610823B9
S1133A103B610323FB610223BB6123E010237B6131
S1133A2020233B610523FB610423BB611AE040238F
S1133A307B6180233B610723FB610623BB6111E0AB
S1133A4080235B007B6180239B003B610923FB6136
S1133A500823BB6106E04D4A4D4B11001800FDF7E9
S1133A60F5FD8DE0BB1D1B78002B00D16DE00F230D
S1133A70FB1800221A70FB1D1B78022B1DD1FEF7C8
S1133A8045FE0300012B18D1424BDA6B8023DB0087
S1133A90134005D1404A3E4B11001800FDF7D6FDF6
S1133AA00F23FB1801221A703C4B5B6A032213405C
S1133AB0032B02D10220FEF735FE384B7A691A66D1
S1133AC0C046BB69364A19001000FEF723FC031EEA
S1133AD0F7D07B1D1B78002B52D0C046FB69304ABF
S1133AE019001000FEF716FC031EF7D0FB1D1B780F
S1133AF0022B45D10F23FB181B78002B40D0274BFA
S1133B005B6A03221340032B03D00021022000F040
S1133B1005F9022000F046F80300BB6001220021F1
S1133B200220FFF751FFBB681900022000F06EF875
S1133B301A4B7A691A66C046FB69194A19001000C3
S1133B40FEF7E8FB031EF7D01AE0144B3A691A6635
S1133B50C046124A9023D3580121BA6991400A0001
S1133B601340F6D17B1D1B78002B09D0C0460B4AAD
S1133B709023D3580121FA6991400A001340F6D1E9
S1133B80BD4609B090BDC046287F0000651D0000F9
S1133B90507D000000300E40741D000000400E40B7
S1133BA090400E4080B584B000AF0200FB1D1A7037
S1133BB0FB1D1B78032B09D0042B0DD0012B11D135
S1133BC00F4B1B6ADB05DB0DFB6014E00C4B1B6920
S1133BD07F221340FB600EE0094B9B697F22134058
S1133BE0FB6008E00023FB60064A074B1100180045
S1133BF0FDF72CFDC046FB681800BD4604B080BD2F
S1133C0000400E40F11D0000507D000080B582B0E0
S1133C1000AF02003960FB1D1A70FB1D1B78032BDB
S1133C2022D0042B3FD0012B5CD13B68334A934212
S1133C3005D9334A334B11001800FDF707FD3B68E3
S1133C40DB05DB0D3B60C0462F4B1A211800FEF745
S1133C5061FB031EF8D12D4B1B6A5B0A59022B4BE7
S1133C603A680A431A6244E03B687F2B05D9284A24
S1133C70244B11001800FDF7E9FC3B687F22134038
S1133C803B60C046204B18211800FEF743FB031E7F
S1133C90F8D11E4B1B697F22934319001B4B3A68D2
S1133CA00A431A6125E03B687F2B05D9194A154B55
S1133CB011001800FDF7CAFC3B687F2213403B60EB
S1133CC0C046114B19211800FEF724FB031EF8D13E
S1133CD00E4B9B697F22934319000C4B3A680A43AD
S1133CE09A6106E00C4A074B11001800FDF7AEFC80
S1133CF0C046C046BD4602B080BDC046FF010000BC
S1133D00171E0000507D000040410E4000400E4050
S1133D10241E00003F1E0000681E000080B584B011
S1133D2000AF0200FB1D1A70BB1D0A1C1A70FB1D9C
S1133D301B78022B06D0F4235A01164B11001800ED
S1133D40FDF784FCFEF7E2FC0300012B03D1802382
S1133D50DB03FB6010E0BB1D1B78002B03D1802329
S1133D60DB03FB6008E00C4BFB600C4A094B1100C1
S1133D701800FDF76BFCC046C046094A9023D3588F
S1133D80FA681340FA689A42F7D101231800BD4635
S1133D9004B080BD507D0000FF33413A9B1E0000FB
S1133DA000400E4080B582B000AFEFF310833B605B
S1133DB03B687B6072B67B681800BD4602B080BD6C
S1133DC080B582B000AF78607B68002B00D162B60A
S1133DD0C046BD4602B080BD80B586B000AFF86075
S1133DE0B9607A60FB681B687B610122BB689A40FA
S1133DF01300DB431A007B691A407B6801211940D8
S1133E00BB6899400B001A43FB681A60C046BD4664
S1133E1006B080BD80B582B000AF786039607B6841
S1133E201A683B68DA401300012213401800BD46AB
S1133E3002B080BD80B500AFC046054B122118000A
S1133E40FFF7E8FF031EF8D1C046BD4680BDC0465B
S1133E5004300E4080B500AFFFF7ECFF044B5B6805
S1133E601B0C03221340DBB21800BD4680BDC046C4
S1133E7000300E4080B582B000AF7860034B7A68A2
S1133E80DA62C046BD4602B080BDC04600300E4076
S1133E9080B500AF024B5B6A1800BD4680BDC046CA
S1133EA000300E4080B582B000AF0200FB1D1A70D6
S1133EB0FB1D1B780222D31A10229A40130018000B
S1133EC0BD4602B080BD000080B584B000AF78600C
S1133ED00A00FB1C1A70174A80235B00D3581B0A84
S1133EE01F2213400133BB607B68002B06D1FCF713
S1133EF0EDFB0200BB685343FB6001E07B68FB60A1
S1133F000D4B1B78002B0AD0FB680C4A934206D851
S1133F10FB1C1B781900022000F012F805E0FB1CC2
S1133F201B781900002000F00BF8C046BD4604B011
S1133F3080BDC04600400E40B4000020FF2C31017B
S1133F40B0B586B000AF0200FB1D1A70BB1D0A1C81
S1133F501A70264A80235B00D3581B0A1F22134081
S1133F6001337B61FCF7B2FB03003B610F257C1935
S1133F70FFF770FF030023707A19FB1D12781B787A
S1133F809A422ED03B697A695343BB60FB1D1B7870
S1133F90022B0ED1BB68164A934205D9154A164B1B
S1133FA011001800FDF752FB3B6902211800FEF7CF
S1133FB087FB124CFB1D1B781800FFF773FF0300EF
S1133FC02361BB1D1B78002B01D0FFF733FFFB1DC2
S1133FD01B78002B06D13B6900211800FEF770FB0B
S1133FE000E0C046BD4606B0B0BDC04600400E402D
S1133FF0002D3101B30400003C7F000000300E406E
S113400080B500AF01231800BD4680BD80B582B0E5
S113401000AF0E4BDA6E0D4B802149040A43DA6679
S11340200B4B00211800FFF7F5FE03007B607B6853
S1134030002B03D0042000F01BFE02E0002000F05F
S113404017FEC046BD4602B080BDC04600300E40DB
S11340504C300E4080B58AB000AF01237B627B6A8E
S11340601B053B62454BDB6C1B0A0F221340FB61B3
S1134070434B1B881A00424B1B8828335B08D31818
S113408028331800FB695A1C13009B009B18190065
S113409002F09CF80300013BBB61BB697B61072311
S11340A03B617A693B69934200D91300BB61BB69E8
S11340B01B06BB61BB69334A134005D0324A334BFC
S11340C011001800FDF7C2FA3B6A314A134005D0CB
S11340D0304A2E4B11001800FDF7B8FA274BDB6C61
S11340E02D4A13401900BA693B6A1A43234B0A4309
S11340F0DA642A4B00229B5E002B3ADB274B00221A
S11341009A5E0E217B181A807B181A887B181B88EC
S113411028335B08D31828331800FB6901335A008D
S1134120FB6901335B08D318190002F04FF8030050
S1134130BB60BB687B6007233B607A683B68934243
S113414000D91300BB60BB681B01BB60BB68702255
S1134150934305D0124A0D4B11001800FDF776FA6F
S1134160064B1B6D702293431900044BBA680A4333
S11341701A65C046BD460AB080BDC04600300E4038
S1134180AC000020FFFFFFF8CE0600003C7F0000DB
S1134190FFFF8FFFCF060000FFFF8FF8B000002065
S11341A0E706000080B582B000AF78600A00BB1C4F
S11341B01A807B689AB2054B1A80054BBA1C128888
S11341C01A80C046BD4602B080BDC046AC00002087
S11341D0B000002080B582B000AF0200FB1D1A7051
S11341E0FB1D1B78002B02D0012B04D007E0094BE8
S11341F0094A9A650AE0074B084A9A6506E0084AA4
S1134200084B11001800FDF721FAC046C046BD4610
S113421002B080BD00300E4077402057372110B7E0
S1134220130700003C7F000090B585B000AF040088
S113423008001100FB1D221C1A70BB1D021C1A7001
S11342407B1D0A1C1A70364AC0235B00D358FB60DE
S1134250BB1D1B78012B0DD002DC002B05D019E00F
S1134260022B0DD0032B11D014E0FB68FF22134066
S1134270FB6017E0FB681B0AFF221340FB6011E0A0
S1134280FB681B0CFF221340FB600BE0FB681B0E5A
S1134290FB6007E0234A244B11001800FDF7D6F910
S11342A0002339E07B1D1B78002B17D1FB681B030F
S11342B0FB60FB681D4A134007D01D4A1A4B1100CE
S11342C01800FDF7C3F9002326E01A4BDB6E174AEA
S11342D013401900174BFA680A43DA667B1D1B78F2
S11342E0012B18D1FB681B03FB60FB680F4A1340CA
S11342F007D0114A0C4B11001800FDF7A7F9002351
S11343000AE00C4AEC23D358084A1A400949FB68CE
S11343101343EC228B5001231800BD4605B090BD19
S1134320B081E00F570700003C7F0000FF0FFFFF44
S11343306207000000300E406E07000080B588B0B0
S113434000AFF860B9601900FB1D1A70BB1D0A1C90
S11343501A700023FB610023BB61BB1D1B781A028A
S1134360FB1D1B78002B01D0012300E00023134325
S11343707B617B690222FF3293422DD00222FF32FD
S1134380934207D8012B18D051D380225200934274
S11343905CD086E04B4A93422CD04A4A934204D8DC
S11343A08022920093425FD07BE0C022920093422D
S11343B069D0454A93422CD073E0444ABA235B0047
S11343C0D358FB61FB691B0AFF221340BB61FB69E5
S11343D0FF221340FB616BE03C4ABA235B00D358D5
S11343E0FB61FB691B0EBB61FB691B0CFF221340C5
S11343F0FB615DE0354ABC235B00D358FB61FB697C
S11344001B0AFF221340BB61FB69FF221340FB61BF
S11344104EE02E4ABC235B00D358FB61FB691B0EA4
S1134420BB61FB691B0CFF221340FB6140E0274A80
S1134430B6235B00D358FB61FB691B0AFF221340C0
S1134440BB61FB69FF221340FB6131E01F4AB623C5
S11344505B00D358FB61FB691B0EBB61FB691B0C42
S1134460FF221340FB6123E0184AB8235B00D358B2
S1134470FB61FB691B0AFF221340BB61FB69FF223E
S11344801340FB6114E0114AB8235B00D358FB616D
S1134490FB691B0EBB61FB691B0CFF221340FB6114
S11344A006E00B4A0B4B11001800FDF7CFF8C0468D
S11344B0FB68FA691A60BB68BA691A60C046BD46EF
S11344C008B080BD0102000001030000B081E00FCC
S11344D0D30700003C7F000080B584B000AF020029
S11344E0FB1D1A70C0463A4B9B6F01221340FAD150
S11344F0374B1B6C03221340FB60FB68002B05D079
S1134500344B01220D211800FFF766FCFB68DBB277
S1134510FA1D12789A420AD1FB1D1B78002B52D146
S11345202C4B00220D211800FFF756FC4BE0FB68D2
S1134530032B02D0FB68002B23D1FB1D1B78022B1D
S113454003D0FB1D1B78012B1BD180231B031800F8
S1134550FFF790FCC0461E4B9B6F01221340FAD11B
S11345601B4B1B6C032293431A00194B01210A4372
S11345701A64C046FFF78CFC020080231B0313401F
S1134580F8D0C046124B9B6F01221340FAD1104B56
S11345901B6C032293431900FB1D1A780C4B0A432E
S11345A01A64C0460A4B9B6F01221340FAD1FB1DCB
S11345B01B785A1E9341DBB21A00064B0D211800DA
S11345C0FFF70AFC00E0C046BD4604B080BDC0460B
S11345D000300E4054300E4080B584B000AF786097
S11345E0FFF70EFD7B681B89C82B05D9644A654B10
S11345F011001800FDF72AF87B689A887B681B89EC
S11346009A4205D9604A5F4B11001800FDF71EF865
S11346107B680C229B5EC82B05DD5C4A594B11005C
S11346201800FDF713F87B685B78012B0AD17B68CF
S11346309B88C82B14D9564A524B11001800FDF719
S113464005F80DE07B685B78022B09D17B689B88B9
S11346500A2B05D94F4A4B4B11001800FCF7F6FF03
S11346607B68DB884C4A934205D94C4A454B110080
S11346701800FCF7EBFF7B68DB884A2B02D8002389
S1134680FB6015E07B68DA88F423FF339A4203D891
S113469080235B05FB600BE07B68DB88404A934228
S11346A003D880239B05FB6002E0C0239B05FB60CD
S11346B03C4BDB6C3C4A134019007B680C229B5E2C
S11346C0002B01DB012300E00023FA681A43354B79
S11346D00A43DA64334AEC23D3583249C0229200A5
S11346E01343EC228B50FFF791FC7B681B891A0063
S11346F07B680C215B5E19001000FFF753FD7B689B
S11347009A882A4B1A807B689B88180000F03AFA32
S11347107B689B7B1800FFF75DFD7B685B8801224B
S11347200121180000F048F803001A000123534047
S1134730DBB2002B07D01E4A124B11001800FCF705
S113474085FF002318E0174BDA6B164B8021C90054
S11347500A43DA637B685B781800FFF7BDFE7B6869
S11347609B7A202B01D1012300E0002311481A0079
S11347700521FFF731FB01231800BD4604B080BDBD
S1134780770800003C7F00007808000079080000EA
S11347907D08000082080000102700008A0800003D
S11347A0C309000000300E40FEFFFFCFAE00002022
S11347B0C10800003C300E40F0B595B000AF786001
S11347C008001100FB1C021C1A70BB1C0A1C1A7086
S11347D00023FB6400237B642423FB1818000C23B0
S11347E01A00002101F0DFFD1823FB1818000C2328
S11347F01A00002101F0D7FD0C23FB1818000C232C
S11348001A00002101F0CFFD0823FB181800032330
S11348101A00002101F0C7FD7B68D04A934205D9F4
S11348207B68CF4A934201D8012200E00022432052
S11348303B181A701A7801210A401A703B181B7829
S113484001225340DBB2002B07D0C64AC64B1100ED
S11348501800FCF7FBFE00237BE142203B187A683A
S1134860E121C9009142924152421A703B181B78CF
S1134870002B09D0E123DB00FB64B94B7B647A6C29
S1134880FB6CD31ABB6409E09623DB00FB64E123D1
S1134890DB007B647A6CFB6CD31ABB644223FB1889
S11348A01B78002B14D0B14AB4235B00D2581821D2
S11348B07B189A607B189B681A0E0C23FB189A606D
S11348C07B189B681B0CFF221A407B189A6014E02B
S11348D0A64AB4235B00D25818217B189A607B182F
S11348E09B681B0AFF221A400C23FB189A607B1852
S11348F09B68FF221A407B189A609D4BDB6C1B0F50
S1134900DBB203221340DAB208217B181A707B1839
S11349101C784223FB181A780C26B9191825781923
S11349202300FFF70BFD924AEC23D3581B0ADBB29A
S113493003221340DAB208217B185A707B185C7882
S11349404223FB181A78BB19191D7B19181D230063
S1134950FFF7F4FC7A68FB6CD21ABB1999687B19CF
S11349609B68CB1A5343B96C180001F02FFC030069
S11349701A0024243B199A603B199A687B199B6896
S1134980D2183B199A607A68FB6CD21ABB19196861
S11349907B191B68CB1A5343B96C180001F016FC41
S11349A003001A003B191A603B191A687B191B682B
S11349B0D2183B191A607A68FB6CD21ABB19596871
S11349C07B195B68CB1A5343B96C180001F0FEFBEA
S11349D003001A003B195A603B195A687B195B683B
S11349E0D2183B195A603B199A68BB199B689A42C2
S11349F027D82423FB189A681823FB189B689A422B
S1134A001FD32423FB185A680C23FB185B689A42B3
S1134A1017D82423FB185A681823FB185B689A429A
S1134A200FD32423FB181A680C23FB181B689A4223
S1134A3007D82423FB181A681823FB181B689A420A
S1134A4007D24C4A484B11001800FCF7FFFD002325
S1134A507FE0BB1C1B78002B14D0454BDB6D464A12
S1134A601A402423FB189B681B021A43110042239B
S1134A70FB181B78002B01D0022200E000223C4BE3
S1134A800A43DA65FB1C1B78002B61D00823FB1852
S1134A9019784223FB181B7800221800FFF7C4FB87
S1134AA003001A0001235340DBB2002B07D0334A22
S1134AB02D4B11001800FCF7C9FD002349E0082321
S1134AC0FB1859784223FB181B7801221800FFF7C2
S1134AD0ABFB03001A0001235340DBB2002B07D0C9
S1134AE0274A214B11001800FCF7B0FD002330E0E9
S1134AF02422BB181B68FB63BB185B68BB63FA6B9F
S1134B00BB6B934200D2130024217A1813607B18E4
S1134B101B687B63E7233B637A6B3B6B934200D94F
S1134B20130024217A181360114B5B6E5B0A5A023E
S1134B307B181B685B001A4311004223FB181B7887
S1134B40002B01D0012200E00022094B0A435A66DF
S1134B5001231800BD4615B0F0BDC046070700008C
S1134B60B80B0000060900003C7F0000B081E00F94
S1134B7000300E4054090000FD80FFFF630900006F
S1134B806B09000080B584B000AF78600023FB603F
S1134B90334B1B6F07221340BB60314BDB6C01228C
S1134BA0134014D0BB68012B11D97B68132B02D896
S1134BB00423FB603CE07B68132B05D97B68272B1F
S1134BC002D80823FB6033E01023FB6030E0244B61
S1134BD0DB6C0122134014D1BB68012B11D87B6814
S1134BE0092B02D80423FB6022E07B68092B05D93A
S1134BF07B68132B02D80823FB6019E01023FB60A9
S1134C0016E0174BDB6C012213400BD0BB68012B61
S1134C1008D87B68272B02D80823FB6008E0102300
S1134C20FB6005E00F4A104B11001800FCF70EFD65
S1134C30FB68013BFB60FB681A02FB681B03134320
S1134C40FB60074BDB6C094A13401900044BFA68FC
S1134C500A43DA64FFF7FEF9C046BD4604B080BDDE
S1134C6000300E40A90900003C7F0000FF00FFFF58
S1134C7080B584B000AF0200FB1D1A70144B0021F4
S1134C801800FFF7C7F80300FB60FB68002B03D193
S1134C90FB1D1B78012B08D9FB68002B05D10D4A9D
S1134CA00D4B11001800FCF7D1FC0C4B1B6F0722B5
S1134CB093431900FB1D1A78084B0A431A67084BE3
S1134CC01B881800FFF75EFFC046BD4604B080BDD8
S1134CD04C300E40C80900003C7F000000300E40FC
S1134CE0AE00002080B586B000AFF860B9607A608D
S1134CF0FB681B687B610122BB689A401300DB439D
S1134D001A007B691A407B6801211940BB689940ED
S1134D100B001A43FB681A60C046BD4606B080BD4E
S1134D2080B584B000AF786039607B68C022D2045B
S1134D3094466344FB60FB683A681A60C046BD460B
S1134D4004B080BD80B584B000AF786039607B6802
S1134D508022D20494466344FB60FB683A681A607C
S1134D60C046BD4604B080BD80B584B000AFF860D5
S1134D70B9607A60BA68FB6811001800FFF7E2FFB7
S1134D807A68FB6811001800FFF7CAFFC046BD46E9
S1134D9004B080BD80B582B000AF78600349044A96
S1134DA07B688B50C046BD4602B080BD0080084081
S1134DB02404000080B582B000AF02003960FB1DFE
S1134DC01A70FB1D1B78002B1FD0FB1D1B78012BB9
S1134DD019D0FB1D1B78022B13D0FB1D1B78032B52
S1134DE00DD0FB1D1B78042B07D0FB1D1B78052B56
S1134DF001D13F230AE0002308E0144B06E0144BE2
S1134E0004E0144B02E0144B00E0144B3A681341E5
S1134E100122134005D1124A124B11001800FCF76D
S1134E2015FCFB1D1A7813005B009B181B010C3347
S1134E300D4A981801223B689A4013001900FFF7A5
S1134E4081FFC046BD4602B080BDC046F0FF0000F1
S1134E50FF010000FFFF0000F87900007FF7000069
S1134E60DD030000A07F00000080084080B582B010
S1134E7000AF02003960FB1D1A70FB1D1B78002B6C
S1134E801FD0FB1D1B78012B19D0FB1D1B78022B97
S1134E9013D0FB1D1B78032B0DD0FB1D1B78042B9B
S1134EA007D0FB1D1B78052B01D13F230AE000230B
S1134EB008E0144B06E0144B04E0144B02E0144BDE
S1134EC000E0144B3A6813410122134005D1124A01
S1134ED0124B11001800FCF7B9FBFB1D1A781300E4
S1134EE05B009B181B010C330D4A981801223B6888
S1134EF09A4013001900FFF713FFC046BD4602B0E5
S1134F0080BDC046F0FF0000FF010000FFFF00006D
S1134F10F87900007FF700000C040000A07F000077
S1134F200080084090B587B000AFB9607A6019007E
S1134F300F243B19021C1A700E23FB180A1C1A704A
S1134F4000237B613B191B78002B24D00F23FB1813
S1134F501B78012B1DD00F23FB181B78022B16D0B6
S1134F600F23FB181B78032B0FD00F23FB181B7880
S1134F70042B08D00F23FB181B78052B01D13F23EA
S1134F800AE0002308E04A4B06E04A4B04E04A4B9F
S1134F9002E04A4B00E04A4BBA6813410122134035
S1134FA004D1484BC5211800FCF750FB7A68BB6854
S1134FB053400322934304D0424BC7211800FCF70B
S1134FC045FB7B68072B11D87B689B000F229A4016
S1134FD011000F23FB181A787B689B009A4013007A
S1134FE01A00394B1800FFF7BFFE13E07B68083B3B
S1134FF07B617B699B000F229A4011000F23FB18F1
S11350001A787B699B009A4013001A002F4B1800F2
S1135010FFF7AAFE7B68072B10D87B689B0003224E
S11350209A401100BB6803221A407B689B009A4097
S1135030130027481A00FFF797FE0FE07B699B00D7
S113504003229A401100BB6803221A407B699B002B
S11350509A4013001F481A00FFF786FE0E23FB1820
S11350601A787B681C481900FFF73CFE20230822AD
S11350709446BC4463441A787B6818481900FFF7C7
S113508031FE01227B689A4013001800FFF782FE6C
S1135090242308229446BC4463441A787B6810484D
S11350A01900FFF71FFEC046BD4607B090BDC046BD
S11350B0F0FF0000FF010000FFFF0000F87900008E
S11350C07FF7000004800000008408400484084046
S11350D0088408400C840840108408401484084064
S11350E02884084090B585B000AFB96011007B609A
S11350F00F243B19021C1A700E23FB180A1C1A7089
S11351003B191B78002B24D00F23FB181B78012B91
S11351101DD00F23FB181B78022B16D00F23FB186E
S11351201B78032B0FD00F23FB181B78042B08D0FC
S11351300F23FB181B78052B01D13F230AE0002322
S113514008E0504B06E0504B04E0504B02E0504B5B
S113515000E0504BBA6813410122134007D11423D5
S1135160FF331A004C4B11001800FCF76FFA0E23A2
S1135170FB181B78002B13D07B68002B08D0BA686F
S11351800F23FB181B7811001800FFF76FFE07E0D0
S1135190BA680F23FB181B7811001800FFF70AFEEA
S11351A0BB68072B25D83D490F243B191A781300F7
S11351B05B009B181B01CB1804331B68BA68920070
S11351C00F2191400A00D24313400E22BA181178DD
S11351D0BA68920091400A00110030483A191278D6
S11351E0194313005B009B181B01C3180433196097
S11351F02AE02A490F243B191A7813005B009B18F4
S11352001B01CB1808331B68BA6825498C466244D5
S113521092000F2191400A00D24313400E22BA1883
S11352201178BA681E4884466244920091400A008C
S113523011001A483A191278194313005B009B189D
S11352401B01C318083319600E23FB181B78002BAD
S113525013D17B68002B08D0BA680F23FB181B7886
S113526011001800FFF702FE07E0BA680F23FB18CD
S11352701B7811001800FFF79DFDC046BD4605B020
S113528090BDC046F0FF0000FF010000FFFF0000DA
S1135290F87900007FF700000480000000800840D7
S11352A0F8FFFF3F80B582B000AF0200FB1D1A700B
S11352B0FB1D1B78002B06D0084B1A68074B0121F5
S11352C00A431A6005E0054B1A68044B01218A431E
S11352D01A60C046BD4602B080BDC04600400540CD
S11352E080B586B000AFF860B9607A60FB681B686F
S11352F07B610122BB689A401300DB431A007B697F
S11353001A407B6801211940BB6899400B001A437D
S1135310FB681A60C046BD4606B080BD80B584B047
S113532000AF7860224B5B68FB607B68002B04D184
S1135330204B46211800FCF789F90020FFF7B2FF43
S1135340FB681D4A1340FB607B685B781A00FB68AE
S11353501343FB607B685B68FA681343FB607B68FC
S11353601B7A1A00FB681343FB607B68DB68FA68EE
S11353701343FB607B681B69FA681343FB600C4BA7
S1135380FA685A607B681B7D094A1900F023D150E2
S11353907B689B69180000F08BFA7B681B78002BF4
S11353A002D00120FFF77EFFC046BD4604B080BD99
S11353B00040054068800000E8FF8FCC80B584B0D1
S11353C000AFF860B960FB1D1A70FB68072B06DD9F
S11353D08C235A006B4B11001800FCF737F9BB689B
S11353E0272B07DD2023FF331A00664B110018001A
S11353F0FCF72CF9FB68072B00D9B5E0FB689A0091
S1135400614BD3181B689F46BB681F2B07DCB96828
S1135410FB1D1B785D481A00FFF762FFADE0BB6817
S1135420203BBB60B968FB1D1B7859481A00FFF785
S113543057FFA2E0BB681F2B07DCB968FB1D1B7874
S113544054481A00FFF74CFF97E0BB68203BBB6051
S1135450B968FB1D1B7850481A00FFF741FF8CE028
S1135460BB681F2B07DCB968FB1D1B784B481A006F
S1135470FFF736FF81E0BB68203BBB60B968FB1DCA
S11354801B7847481A00FFF72BFF76E0BB681F2BF9
S113549007DCB968FB1D1B7842481A00FFF720FFA0
S11354A06BE0BB68203BBB60B968FB1D1B783E48C2
S11354B01A00FFF715FF60E0BB681F2B07DCB96813
S11354C0FB1D1B7839481A00FFF70AFF55E0BB683B
S11354D0203BBB60B968FB1D1B7835481A00FFF7F9
S11354E0FFFE4AE0BB681F2B07DCB968FB1D1B7875
S11354F030481A00FFF7F4FE3FE0BB68203BBB6076
S1135500B968FB1D1B782C481A00FFF7E9FE34E04C
S1135510BB681F2B07DCB968FB1D1B7827481A00E2
S1135520FFF7DEFE29E0BB68203BBB60B968FB1DCA
S11355301B7823481A00FFF7D3FE1EE0BB681F2B1D
S113554007DCB968FB1D1B781E481A00FFF7C8FE6C
S113555013E0BB68203BBB60B968FB1D1B781A488D
S11355601A00FFF7BDFE08E08A23FF331A00054B3B
S113557011001800FCF76AF8C046C046BD4604B0E6
S113558080BDC04668800000CC80000040400540DB
S113559050400540444005405440054048400540C3
S11355A0584005404C4005405C4005406040054083
S11355B07040054064400540744005406840054023
S11355C0784005406C4005407C40054080B586B07D
S11355D000AFF860B9607A60FB68072B06DDD12361
S11355E05A00554B11001800FCF730F8FB68072BE4
S11355F000D995E0FB689A00504BD3181B689F466E
S11356004F4B1B6C7B61BB68DA437B6913407B6146
S1135610BB687A6813407A6913437B61484B7A69A3
S11356201A6485E0464B5B6C7B61BB68DA437B693B
S113563013407B61BB687A6813407A6913437B61CA
S11356403F4B7A695A6473E03D4B9B6C7B61BB684A
S1135650DA437B6913407B61BB687A6813407A69DB
S113566013437B61364B7A699A6461E0344BDB6C9B
S11356707B61BB68DA437B6913407B61BB687A68F2
S113568013407A6913437B612D4B7A69DA644FE0E6
S11356902B4B1B6E7B61BB68DA437B6913407B61D8
S11356A0BB687A6813407A6913437B61244B7A6937
S11356B01A663DE0224B5B6E7B61BB68DA437B6913
S11356C013407B61BB687A6813407A6913437B613A
S11356D01B4B7A695A662BE0194B9B6E7B61BB6846
S11356E0DA437B6913407B61BB687A6813407A694B
S11356F013437B61124B7A699A6619E0104BDB6E97
S11357007B61BB68DA437B6913407B61BB687A6861
S113571013407A6913437B61094B7A69DA6607E0BF
S1135720F1235A00044B11001800FBF78FFFC04609
S1135730C046BD4606B080BD68800000EC80000015
S11357400040054080B586B000AFF860B9607A606B
S1135750FB68072B06DDFD235A00524B110018008D
S1135760FBF774FFFB68072B00D995E0FB689A00F0
S11357704D4BD3181B689F464C4B1B6D7B61BB681C
S1135780DA437B6913407B61BB687A6813407A69AA
S113579013437B61454B7A691A657EE0434B5B6D2D
S11357A07B61BB68DA437B6913407B61BB687A68C1
S11357B013407A6913437B613C4B7A695A656CE008
S11357C03A4B9B6D7B61BB68DA437B6913407B6119
S11357D0BB687A6813407A6913437B61334B7A69F7
S11357E09A655AE0314BDB6D7B61BB68DA437B69B8
S11357F013407B61BB687A6813407A6913437B6109
S11358002A4B7A69DA6548E0284B1B6F7B61BB68D9
S1135810DA437B6913407B61BB687A6813407A6919
S113582013437B61214B7A691A6736E01F4B5B6F28
S11358307B61BB68DA437B6913407B61BB687A6830
S113584013407A6913437B61184B7A695A6724E0E1
S1135850164B9B6F7B61BB68DA437B6913407B61AA
S1135860BB687A6813407A6913437B610F4B7A698A
S11358709A6712E00D4BDB6F7B61BB68DA437B698F
S113588013407B61BB687A6813407A6913437B6178
S1135890064B7A69DA6700E0C046C046BD4606B0EA
S11358A080BDC046688000000C81000000400540B7
S11358B080B582B000AF78607B683F2B05DD0A4A73
S11358C00A4B11001800FBF7C1FE094B5B68094A3B
S11358D01A407B681B021900054B0A435A60C046F4
S11358E0BD4602B080BDC0465A0200006880000078
S11358F000400540FFC0FFFF80B582B000AF786074
S11359000A00FB1C1A70FB1C1B78802252421343B2
S1135910DBB21A007B689A65C046BD4602B080BD02
S113592080B586B000AFF860B9607A601A00FB1CDD
S11359301A707B68002B06D191235A00564B110034
S11359401800FBF783FEBB68002B10D1FB68534A99
S1135950934206D1524B1800FDF7B0F80300BB6028
S113596005E0504B1800FDF7A9F80300BB60FB1CD1
S11359701B78202B17D002DC002B05D047E0402BEE
S113598021D0602B33D042E0BB681B097A689A426D
S113599006D9AA235A00404B11001800FBF756FE03
S11359A010237B613CE0BB68DB087A689A4207D924
S11359B05A23FF331A00384B11001800FBF746FE38
S11359C008237B612CE0BB680621180000F0FEFB75
S11359D003001A007B68934206D9AF235A002E4B6A
S11359E011001800FBF732FE06237B6118E0BB6848
S11359F09B087A689A4207D96423FF331A00264B1E
S1135A0011001800FBF722FE04237B6108E06A23DF
S1135A10FF331A00204B11001800FBF717FE37E084
S1135A20BB685A017B6979684B435B08D3183B61B7
S1135A307B697A6853431900386900F0C7FB030097
S1135A403B613B69203B3B613B69DB003B613B695C
S1135A50154A934207D98023FF331A000E4B1100D5
S1135A601800FBF7F3FD3B690F4A13403B61FB68E9
S1135A701B68602293431A00FB681A60FB681A686B
S1135A80FB1C1B781A43FB681A60FB683A695A616D
S1135A90BD4606B080BDC0462C8100000008014010
S1135AA05041070040410500F8FF7F0080B584B0F5
S1135AB000AF78600A00FB1C1A707B68164A934298
S1135AC015D07B68154A934211D07B68144A9342DF
S1135AD00DD07B68134A934209D07B68124A9342E3
S1135AE005D0124A124B11001800FBF7AFFDFB1C46
S1135AF01B78DB43FB60FB6805221340FB60FB68FB
S1135B005A007B68DA60FB1C1A787B68DA60C0464E
S1135B10BD4604B080BDC046000001400004014001
S1135B2000080140000C0140004001409E020000BA
S1135B302C81000080B582B000AF786039607B684A
S1135B403C4A934215D07B683B4A934211D07B6810
S1135B503A4A93420DD07B68394A934209D07B6814
S1135B60384A934205D0384A384B11001800FBF7E5
S1135B706DFD7B68180000F06BF83B689B7C002B84
S1135B8006D07B681B688022D2051A437B681A60A2
S1135B903B68DB7C002B06D03B681A7D7B681100D8
S1135BA01800FFF7A9FE3B685B7B1A003B681B8A61
S1135BB013433A68D2891A437B685A603B68596830
S1135BC03B689A683B681B7B7868FFF7A9FE3B68D3
S1135BD05B7D002B06D07B681B68802252021A432F
S1135BE07B681A603B689B7D1B071A00E023DB057A
S1135BF01A403B68DB7D1B051900E023DB030B40E7
S1135C001A437B681A667B685B6F302293431A00E1
S1135C107B685A677B685B6F3A68127E1A437B68BD
S1135C205A673B681B781A007B68DA60C046BD4639
S1135C3002B080BD000001400004014000080140A2
S1135C40000C014000400140CF0200002C81000004
S1135C5080B582B000AF78607B682B4A934215D040
S1135C607B682A4A934211D07B68294A93420DD01B
S1135C707B68284A934209D07B68274A934205D01F
S1135C80264A274B11001800FBF7E0FC7B68254AE5
S1135C90DA607B6800221A607B68234A5A607B685A
S1135CA000229A607B6800225A617B680022DA64D1
S1135CB07B681E4A9A647B6800221A667B6800220D
S1135CC05A677B6800229A677B680022DA677B68E0
S1135CD00D4A934203D07B680D4A934202D17B68FC
S1135CE000221A657B6800229A657B68074A934202
